:100000000C945D000C9485000C9485000C94850084
:100010000C9485000C9485000C9485000C9485004C
:100020000C9485000C9485000C9485000C9485003C
:100030000C9485000C9485000C9485000C9485002C
:100040000C942C030C9485000C94FA020C94D402AA
:100050000C9485000C9485000C9485000C9485000C
:100060000C9485000C94850000000008000201003B
:100070000003040700000000000000000000000072
:10008000250028002B0000000000240027002A0083
:10009000040404040404040402020202020203032E
:1000A0000303030301020408102040800102040836
:1000B0001020010204081020610411241FBECFEF9C
:1000C000D8E0DEBFCDBF21E0A2E1B1E001C01D92CA
:1000D000AE3BB207E1F711E0A0E0B1E0E0E6F9E005
:1000E00002C005900D92A231B107D9F710E0CDE51D
:1000F000D0E004C02197FE010E94A804CC35D107AE
:10010000C9F70E9476030C94AE040C940000AF92E1
:10011000BF92CF92DF92EF92FF920F931F93CF93F4
:10012000DF936C017B018B01040F151FEB015E0156
:10013000AE18BF08C017D10759F06991D601ED91EB
:10014000FC910190F081E02DC6010995892B79F78A
:10015000C501DF91CF911F910F91FF90EF90DF903C
:10016000CF90BF90AF900895FC01538D448D252F03
:1001700030E0842F90E0821B930B541710F0CF9641
:10018000089501970895FC01918D828D981761F073
:10019000A28DAE0FBF2FB11D5D968C91928D9F5F8A
:1001A0009F73928F90E008958FEF9FEF0895FC0169
:1001B000918D828D981731F0828DE80FF11D858D1C
:1001C00090E008958FEF9FEF08952FB7F8948091F6
:1001D0001D0190911E01A0911F01B09120012FBF20
:1001E0008093290190932A01A0932B01B0932C01B5
:1001F00081E291E00E94D70097FF26C02FB7F894C4
:1002000080911D0190911E01A0911F01B0912001CC
:100210002FBF4091290150912A0160912B017091CB
:100220002C01841B950BA60BB70B40912501509117
:100230002601609127017091280184179507A60770
:10024000B707B0F28FEF9FEF0895CF92DF92EF9252
:10025000FF92CF930E94E500FC0197FD4EC08D32C6
:10026000910521F0C0970A9708F040C0C12CD12C0D
:100270007601C0E0E130F105D1F0ED32F105D9F1C0
:10028000CF01C0970A9798F4AAE0B0E0A7019601C1
:100290000E948E046F01FF0FEE08FF08C60ED71EE6
:1002A000E81EF91E80E3C81AD108E108F10881E2CE
:1002B00091E00E94C3000E94E500FC01C0970A97EC
:1002C000C8F2E130F105B1F2CC2341F0F094E094B2
:1002D000D094C094C11CD11CE11CF11CC701B60113
:1002E000CF91FF90EF90DF90CF90089581E291E061
:1002F0000E94C300AFCFC1E0DACFC12CD12C760170
:10030000EDCFFC01918D228D892F90E0805C9F4F75
:10031000821B91098F739927089581E291E00E94D1
:10032000810121E0892B09F420E0822F089580E0EB
:1003300090E0892B29F00E948D0181110C9400001E
:100340000895FC01A48DA80FB92FB11DA35ABF4F6A
:100350002C91848D90E001968F739927848FA689C4
:10036000B7892C93A089B1898C91837080648C9318
:10037000938D848D981306C00288F389E02D8081C7
:100380008F7D80830895EF92FF920F931F93CF93F9
:10039000DF93EC0181E0888F9B8D8C8D98131AC0C0
:1003A000E889F989808185FF15C09FB7F894EE89A7
:1003B000FF896083E889F989808183708064808304
:1003C0009FBF81E090E0DF91CF911F910F91FF904F
:1003D000EF900895F62E0B8D10E00F5F1F4F0F73F7
:1003E0001127E02E8C8D8E110CC00FB607FCFACFB2
:1003F000E889F989808185FFF5CFCE010E94A101AE
:10040000F1CFEB8DEC0FFD2FF11DE35AFF4FF08282
:100410009FB7F8940B8FEA89FB8980818062CFCFE8
:10042000CF93DF93EC01888D8823B9F0AA89BB892B
:10043000E889F9898C9185FD03C0808186FD0DC016
:100440000FB607FCF7CF8C9185FFF2CF808185FF37
:10045000EDCFCE010E94A101E9CFDF91CF910895A8
:1004600090E0FC01E859FF4F2491FC01EC55FF4F4F
:100470003491FC01E057FF4FE491EE23C9F02223B1
:1004800039F0233001F1A8F4213019F1223029F19B
:10049000F0E0EE0FFF1FE458FF4FA591B4918FB726
:1004A000F894EC91611126C030953E233C938FBFA8
:1004B00008952730A9F02830C9F0243049F78091F9
:1004C00080008F7D03C0809180008F7780938000B3
:1004D000DFCF84B58F7784BDDBCF84B58F7DFBCF35
:1004E0008091B0008F778093B000D2CF8091B00020
:1004F0008F7DF9CF3E2BDACF3FB7F894809113016F
:1005000090911401A0911501B091160126B5A89BF8
:1005100005C02F3F19F00196A11DB11D3FBFBA2F95
:10052000A92F982F8827BC01CD01620F711D811D55
:10053000911D42E0660F771F881F991F4A95D1F7DA
:1005400008958F929F92AF92BF92CF92DF92EF92D7
:10055000FF926B017C010E947C024B015C01C11483
:10056000D104E104F104B9F00E947C026819790910
:100570008A099B09683E73408105910580F321E05B
:10058000C21AD108E108F10888EE880E83E0981EAF
:10059000A11CB11CE4CFFF90EF90DF90CF90BF90F3
:1005A000AF909F908F9008951F920F920FB60F9269
:1005B00011242F933F934F935F936F937F938F9368
:1005C0009F93AF93BF93EF93FF9381E291E00E94DB
:1005D000A101FF91EF91BF91AF919F918F917F9179
:1005E0006F915F914F913F912F910F900FBE0F90A0
:1005F0001F9018951F920F920FB60F9211242F93F0
:100600008F939F93EF93FF93E0913101F09132012B
:100610008081E0913701F091380182FD1BC090810B
:1006200080913A018F5F8F7320913B01821741F0D7
:10063000E0913A01F0E0EF5DFE4F958F80933A0133
:10064000FF91EF919F918F912F910F900FBE0F907F
:100650001F9018958081F4CF1F920F920FB60F92C2
:1006600011242F933F938F939F93AF93BF938091C8
:100670001D0190911E01A0911F01B09120013091A8
:10068000120123E0230F2D3758F50196A11DB11D4E
:100690002093120180931D0190931E01A0931F01CE
:1006A000B09320018091130190911401A091150144
:1006B000B09116010196A11DB11D80931301909375
:1006C0001401A0931501B0931601BF91AF919F91B2
:1006D0008F913F912F910F900FBE0F901F90189503
:1006E00026E8230F0296A11DB11DD2CF789484B5C0
:1006F000826084BD84B5816084BD85B5826085BD1E
:1007000085B5816085BD80916E00816080936E00AB
:10071000109281008091810082608093810080919D
:10072000810081608093810080918000816080934E
:1007300080008091B10084608093B1008091B0000E
:1007400081608093B00080917A00846080937A0009
:1007500080917A00826080937A0080917A00816033
:1007600080937A0080917A00806880937A0010925A
:10077000C100E7EAF0E02491E3E9F0E08491882306
:1007800099F090E0880F991FFC01EA57FF4FA5915F
:10079000B491FC01E458FF4F859194918FB7F89480
:1007A000EC91E22BEC938FBFE0913101F09132019B
:1007B00082E08083E0912D01F0912E011082E09182
:1007C0002F01F09130018FEC808310923901E0917C
:1007D0003501F091360186E08083E0913301F0919C
:1007E0003401808180618083E0913301F091340194
:1007F000808188608083E0913301F09134018081B1
:1008000080688083E0913301F091340180818F7D95
:10081000808300E010E081E291E00E948101892B59
:10082000F1F10E942501EB0170931C0160931B0103
:100830000E9425015B0170931A01609319010E94C7
:1008400025016B01709318016093170161E0C130BD
:10085000D10521F0C230D10529F460E083E00E9487
:100860003002D9CF2397B9F6C1E0D0E00D2C000CAF
:10087000EE08FF08AC16BD0674F261E083E00E944A
:100880003002C701B6010E94A10260E083E00E942D
:100890003002C701B6010E94A1022196EBCF61E0B0
:1008A00070E080E090E00E94A1020115110509F4BA
:1008B000B2CF0E948D01882309F4ADCF0E940000C1
:1008C000AACFE1E2F1E01382128288EE93E0A0E089
:1008D000B0E084839583A683B78384E091E091831D
:1008E000808385EC90E09587848784EC90E09787FF
:1008F000868780EC90E0918B808B81EC90E0938BED
:10090000828B82EC90E0958B848B86EC90E0978BC9
:10091000868B118E128E138E148E08950E94990468
:10092000A59F900DB49F900DA49F800D911D112443
:100930000895A29FB001B39FC001A39F700D811DB8
:100940001124911DB29F700D811D1124911D0895D8
:10095000EE0FFF1F0590F491E02D0994F894FFCF5E
:1009600000000000C3018700B40010028101C30031
:02097000D700AE
:00000001FF
